:1000000085C19FC19EC19DC19CC19BC19AC199C11F
:100010009EC297C196C195C194C193C192C173C646
:100020008FC644C5BAC533C5DCC5DBC5DAC5D9C57D
:100030002EC5D7C5D6C5D5C599C5D3C5D2C5D1C5D9
:10004000D0C5CFC55FC5CDC5CCC5CBC5CAC578C5E4
:10005000C8C5C7C553C5C5C5C4C5C3C5C2C5C1C5C7
:10006000C0C520C5BEC513C5BCC5BBC50EC513C51F
:100070000EC5ABC5B6C5B5C59AC5B3C508C502C5DD
:1000800006C5AFC5AEC5ADC500C503003263FF00F0
:1000900000326300FF0032630000FF02001463FFC0
:1000A000FFFF146300000002001463FF00001463EC
:1000B0000000000200146300FF001463000000024F
:1000C0000014630000FF14630000000200146300CA
:1000D000FFFF146300000002001463FF00FF1463BD
:1000E00000000002001463FFFF0014630000000121
:1000F00000146300000007001E6800FFFF1E682A4E
:10010000FFFF1E6854FFFF1E687EFFFF1E68A8FFEA
:10011000FF1E68D2FFFF1E68FFFFFF01003248800C
:100120000000100001660A0000326810FFFF02485C
:100130000000301B48001010024800101007480053
:1001400000200A480000400A480000400A48000019
:100150002032680AFFFF016628000005480000FF02
:10016000014800004001480000100548000040051B
:1001700048000030100001660A000014688CFFFF80
:10018000024805003002480500100248050010072B
:10019000480500200A480500400A481500400A4862
:1001A0000500201468A0FFFF016614000005480543
:1001B00000400148050040014805001005480500C1
:1001C000200548050030100001660A000014680A86
:1001D000FFFF024805002002480500100248050004
:1001E0001007480500200A480500400A481500404D
:1001F0000A4805002014680EFFFF01661E00000576
:10020000480500FF01480500400148050010054869
:10021000050020054805003009000166040000645F
:100220006846FFFF32480A0000646880FFFF3248DA
:100230000A0000646814FFFF32480A00006468C8BE
:1002400040FF32480A00000A0001660100006468AD
:10025000B4FF2014480010106468AFFF200166C886
:1002600000000268BC00FF0268B200000468BC0025
:10027000FF01661E00002868ACFF100400016664E0
:100280000000646800FFFF64685AFFFF1E6830FFCB
:10029000FF110001666400000563FFFFFF056300B6
:1002A00000000563FFFFFF05630000000563FFFF1B
:1002B000FF0A630000000A63FFFFFF0A63000000FB
:1002C0000A63FFFFFF0A630000000563FFFFFF05ED
:1002D000630000000563FFFFFF0563000000056386
:1002E000FFFFFF14630000008A009B00A700B3001B
:1002F000BF00CB00D700E300EF00F6001B01220196
:100300007401C601180247027B02910211241FBE2C
:10031000CFE5D1E0DEBFCDBF10E0A0E6B0E0E6E47F
:10032000FFE002C005900D92A436B107D9F710E0A6
:10033000A4E6B0E001C01D92AA39B107E1F72BD3C2
:1003400000C65ECE8091640090916500892B31F4E7
:1003500082ED94E0909365008093640020916400A6
:1003600030916500220F331FC9016BE770E08CD517
:10037000CB0162EE7EEF6AD5FC01C9016BE770E04C
:1003800083D567E976E062D5E80FF91FF093650041
:10039000E09364008E2F08950F931F93082F162F5C
:1003A0006623D9F06F3F11F4CDDF16C0CBDF612F8C
:1003B0005FD5892F90E0002319F01695811B9109D4
:1003C000800F911D97FF02C080E090E08F3F910564
:1003D00019F014F08FEF90E0082F802F1F910F91EC
:1003E0000895282FE62F6623E9F06F3F11F4242F9C
:1003F00019C0842F90E070E029D56FEF70E044D5EC
:1004000030E0E6952E1B3109260F371F37FF02C05B
:1004100020E030E0C9012F3F310519F014F08FEFD3
:1004200090E0282F822F0895EF92FF920F931F9351
:10043000CF93DF93382F262F662359F440938500FE
:100440008091850080938D0080918D008093830042
:1004500077C082958F706AE20BD5082F10E0832F4A
:1004600090E066E070E0F2D4FC0134E0F595E795A9
:100470003A95E1F7EF70F070E42EE2949FE0E92204
:1004800022952F70C22FD0E020E130E0C9018C1BF3
:100490009D0B6E2D70E0DAD4F82EC9018E1B9F0BD8
:1004A000BE01D4D460E170E0EFD4CB01909581958A
:1004B0009F4F40966E2D70E0C9D4282F011511056D
:1004C00029F44093830080938D0015C0CF01BE01B5
:1004D000BDD460E170E0D8D4CB01909581959F4F59
:1004E00040966E2D70E0B2D40130110539F480933E
:1004F000830040938D00F092850022C002301105E8
:1005000039F4F092830040938D002093850018C049
:100510000330110529F4F092830080938D0007C009
:100520000430110539F420938300F0928D0040933C
:10053000850006C040938300F0928D008093850073
:10054000DF91CF911F910F91FF90EF9008951F922F
:100550000F920FB60F9211242F933F934F935F93F7
:100560006F938F939F93809166008F5F8093660057
:1005700080916600883009F063C01092660056B71B
:100580004091830060919200252F30E0241B3109B7
:1005900037FF03C0309521953F4F862F90E082179B
:1005A00093074CF4541739F0541718F4462F450F9D
:1005B00002C0452F461B46BF5CB740918D0060913D
:1005C0009200252F30E0241B310937FF03C03095FE
:1005D00021953F4F862F90E0821793074CF45417D4
:1005E00039F0541718F4462F450F02C0452F461B0B
:1005F0004CBF88B599B5582F409185006091920005
:10060000282F30E0241B310937FF03C03095219596
:100610003F4F862F90E0821793074CF4541739F020
:10062000541718F4452F460F02C0452F461B842F40
:1006300090E099BD88BD809199008F5F809399006B
:100640009F918F916F915F914F913F912F910F905B
:100650000FBE0F901F9018958091910090918E0081
:1006600020917A0030917B00882371F4892F90E0EB
:1006700065E070E0EBD3280F391F87E890E0B901FF
:1006800045E050E031D40DC0892F90E065E070E086
:10069000DDD3280F391F87E890E0B90145E050E02D
:1006A0001AD480918F0090918700890F80938700E2
:1006B00080918800809398008091890080937C00CD
:1006C00080918A0080937D0080918B0080937E00D2
:1006D00040D008951F93282F162F10929900409311
:1006E0008E0080939100882389F487E090E00BD4FA
:1006F0008093840088E090E006D48093970089E09E
:1007000090E090937B0080937A001CC081E090E0A1
:10071000821B91096EEF7FEF99D388519D4FFC01A9
:1007200025913491F9018491809384002F5F3F4F8C
:10073000F9018491809397002F5F3F4F30937B00A6
:1007400020937A00112311F01093970085DF1F91F9
:1007500008950F931F9380919800883609F45FC025
:100760008936A8F4893409F4B4C08A3438F483345F
:1007700009F43FC0883409F0F4C05EC0833671F1DB
:10078000863609F47CC08B3409F0EBC0C9C08B36C7
:1007900009F4ACC08C3638F4893609F486C08A3640
:1007A00009F0DFC07DC0803709F461C0843709F4E7
:1007B00072C08E3609F0D5C080917C008093830092
:1007C00086BF80917D0080938D008CBF80917E00DC
:1007D0008093850090E099BD88BDC3C080917C0066
:1007E0008093830080917D0080938D0080917E00B6
:1007F00013C08091830060917C00CEDD80938300E4
:1008000080918D0060917D00C7DD80938D00809187
:10081000850060917E00C0DD80938500A2C080913C
:100820007C008093900060917D0060936000409117
:100830007E004093610094C08091900060917C00A4
:10084000ABDD809390008091600060917D00A4DD1D
:10085000809360008091610060917E009DDD482F53
:1008600080936100809190006091600079C08091D8
:100870007C0060917D0040917E002CDF72C08091F1
:100880007C00882319F481E080937C0080917C00B7
:100890008093920066C080917C0080938F0061C03D
:1008A00080918E0090917C000FC0E0917C00F0E080
:1008B000ED56FF4F908180917D00891708F051C05F
:1008C00080918E0090917E00890F815080938E00E0
:1008D00048C080917C008093620080917D0080936D
:1008E000630080917E00809386003BC080918300EE
:1008F00060917C004091930074DD8093830080912F
:100900008D0060917D00409194006BDD80938D009F
:100910008091850060917E004091950062DD7CCFE2
:100920008091900060917C00409193005ADD082FE7
:10093000809390008091600060917D0040919400D0
:1009400050DD182F809360008091610060917E00DF
:100950004091950046DD482F80936100802F612FE4
:1009600063DD1F910F9108950F931F93CF93DF9332
:100970000CE710E0C82FD0E0C00FD11F04C0A7D1F2
:10098000F80181938F010C171D07C9F7DF91CF91F3
:100990001F910F910895BF92CF92DF92EF92FF9235
:1009A0000F931F93DF93CF9300D000D00F92CDB75A
:1009B000DEB785E886B917B881B18F6081B91C9A16
:1009C000369A3699FECF369A3699FECF85B1809306
:1009D0008C0081E090E097D2D82E82E090E093D214
:1009E000E82E83E090E08FD2F82E84E090E08BD266
:1009F000182F85E090E087D2082F80E090E083D226
:100A000018160CF089E03DD181EA80BF93E093BFD6
:100A100081E28FBD9EBD609A789410939200809180
:100A20009200882319F48AE08093920000938F004B
:100A300081E0D81621F48E2D6F2D40E04BDEBA9A5E
:100A40008AB3806A8ABB60E3B62E8E010F5F1F4FA8
:100A500050E1E52E57E2F52E4AE1D42ECC24CA947B
:100A600049D1882309F4BDC032D18093980090E029
:100A7000FC01E154F040E433F10508F0B2C0EF5E50
:100A8000FF4F099410928400ACC081E001C083E064
:100A90006BDF5FDEA6C086B709D18CB707D188B5FA
:100AA00099B59EC080E090E02ED29AC010927F004F
:100AB00010927E0010927D0010927C0084E054DF42
:100AC00060917C00662309F48CC080917F006817D8
:100AD00009F087C080917D00803D09F082C080913F
:100AE0007E008D3009F07DC080E090E01CD28091C6
:100AF0007C00C7D0C7010197F1F773C081E6D6D05B
:100B000082E66EC082E030DF80917C00882309F0AD
:100B100068C080917D0090E065E070E097D1BC01F5
:100B2000675F7F4FC80145E050E0DED18981BED0CC
:100B30008A81BCD08B81BAD08C81B8D08D8150C0D5
:100B400087E012DF80917C00882309F04AC0809101
:100B50007D00813308F045C090E065E070E076D11B
:100B6000BC01675F7F4F8EE790E01DC083E0FCDE35
:100B700080917C008823A9F580917D00813310F05D
:100B8000B0927D0087E090E060917D00CCD188E05C
:100B900090E060917E00C7D124C085E0E5DE8CE75F
:100BA00090E061E070E045E050E0B5D11AC081E02E
:100BB000DBDE80917C00882341F487E090E0A3D1C4
:100BC00075D088E090E09FD171D0809193006ED075
:100BD000809194006BD08091950068D080919600B0
:100BE00065D0369911C0E7B185B1F0E0ED56FF4F01
:100BF000808387B18F5F87B987B1843009F417B8D4
:100C00008D2D8A95F1F7369AE0916200EF3F89F0D9
:100C1000909163009F3F69F0F0E0ED56FF4F8081B7
:100C2000981738F480918600815080938E00C0928E
:100C3000990020918400222309F412CF9091990009
:100C400080918700981708F40BCF1092990080913B
:100C50008E008F5F80938E00821789F410928E0031
:100C6000809197008150809397008F3F19F41092E4
:100C7000970005C0882319F410928400F1CEECDCB3
:100C8000EFCE1092730010927200109279001092C1
:100C90007800809367008AB380658ABBDC9ADE9A0D
:100CA000D69888EA8DB980EF8EB90895282F909153
:100CB00078009F5F9370809179009817E1F3E92F96
:100CC000F0E0EC58FF4F20839093780008959091C6
:100CD0007200809173009817D1F3809173008F5F39
:100CE000877080937300E0917300F0E0E659FF4F46
:100CF00080810895909172008091730020E0981394
:100D000021E0822F08951F920F920FB60F921124A7
:100D10008F931092690010926800D698CC9B02C005
:100D2000CE9BFCCFCE9902C088EF01C088EA8DB976
:100D300080EF8EB98F910F900FBE0F901F90189576
:100D40001F920F920FB60F9211248F939F93EF93E0
:100D5000FF9380916800909169008230910509F4B9
:100D600043C08330910530F4009779F0019709F082
:100D700064C01CC08430910509F43FC084309105E3
:100D800090F0059709F059C041C08FB1882331F028
:100D90008FB1869590916700891719F5789B43C0AC
:100DA00081E090E042C08FB18823D9F4909178001F
:100DB000809179009817A9F0809179008F5F8370F6
:100DC00080937900E0917900F0E0EC58FF4F80814A
:100DD0008FB982E090E09093690080936800D69A82
:100DE00013C088EA8DB910C083E090E09093690049
:100DF00080936800D6981FB81EC085E090E090935D
:100E0000690080936800D69880E716C080917200D0
:100E10008F5F877080937200E09172008FB1F0E075
:100E2000E659FF4F808384E090E0909369008093BF
:100E300068001FB8D69A8EE78EB9FF91EF919F9107
:100E40008F910F900FBE0F901F901895552700247B
:100E500080FF02C0060E571F660F771F61157105D0
:100E600021F096958795009799F7952F802D0895F5
:100E7000991B79E004C0991F961708F0961B881FEC
:100E80007A95C9F78095089597FB092E07260AD011
:100E900077FD04D00CD006D000201AF4709561952F
:100EA0007F4F0895F6F7909581959F4F0895AA1B5F
:100EB000BB1B51E107C0AA1FBB1FA617B70710F045
:100EC000A61BB70B881F991F5A95A9F78095909577
:100ED000BC01CD010895FB01DC0102C005900D921B
:100EE00041505040D8F70895DC01862FE82FE19952
:100EF000FECF1FBA05C0EEBBE09AE3950DB20D928E
:100F00004150C8F70895E199FECF1FBA8EBBE09A11
:100F100099278DB30895DC01862F02C02D9104D04E
:100F20004150E0F70895262FE199FECF1CBA1FBA71
:100F30008EBB2DBB0FB6F894E29AE19A0FBE0196D4
:060F40000895F894FFCFB4
:040F4600FFFFFFFFAB
:00000001FF
