:1000000085C19FC19EC19DC19CC19BC19AC199C11F
:10001000F6C297C196C195C194C193C192C154C70C
:1000200070C710C686C6FFC5A8C6A7C6A6C6A5C601
:10003000FAC5A3C6A2C6A1C665C69FC69EC69DC672
:100040009CC69BC62BC699C698C697C696C644C67C
:1000500094C693C61FC691C690C68FC68EC68DC65F
:100060008CC6ECC58AC6DFC588C687C6DAC5DFC5BB
:10007000DAC577C682C681C666C67FC6D4C5CAC57C
:10008000D2C57BC67AC679C6CCC503003263FF00F1
:1000900000326300FF0032630000FF02001463FFC0
:1000A000FFFF146300000002001463FF00001463EC
:1000B0000000000200146300FF001463000000024F
:1000C0000014630000FF14630000000200146300CA
:1000D000FFFF146300000002001463FF00FF1463BD
:1000E00000000002001463FFFF0014630000000121
:1000F00000146300000007001E6800FFFF1E682A4E
:10010000FFFF1E6854FFFF1E687EFFFF1E68A8FFEA
:10011000FF1E68D2FFFF1E68FFFFFF01003248800C
:100120000000100001660A0000326810FFFF02485C
:100130000000301B48001010024800101007480053
:1001400000200A480000400A480000400A48000019
:100150002032680AFFFF016628000005480000FF02
:10016000014800004001480000100548000040051B
:1001700048000030100001660A000014688CFFFF80
:10018000024805003002480500100248050010072B
:10019000480500200A480500400A481500400A4862
:1001A0000500201468A0FFFF016614000005480543
:1001B00000400148050040014805001005480500C1
:1001C000200548050030100001660A000014680A86
:1001D000FFFF024805002002480500100248050004
:1001E0001007480500200A480500400A481500404D
:1001F0000A4805002014680EFFFF01661E00000576
:10020000480500FF01480500400148050010054869
:10021000050020054805003009000166040000645F
:100220006846FFFF32480A0000646880FFFF3248DA
:100230000A0000646814FFFF32480A00006468C8BE
:1002400040FF32480A00000A0001660100006468AD
:10025000B4FF2014480010106468AFFF200166C886
:1002600000000268BC00FF0268B200000468BC0025
:10027000FF01661E00002868ACFF100400016664E0
:100280000000646800FFFF64685AFFFF1E6830FFCB
:10029000FF110001666400000563FFFFFF056300B6
:1002A00000000563FFFFFF05630000000563FFFF1B
:1002B000FF0A630000000A63FFFFFF0A63000000FB
:1002C0000A63FFFFFF0A630000000563FFFFFF05ED
:1002D000630000000563FFFFFF0563000000056386
:1002E000FFFFFF14630000008A009B00A700B3001B
:1002F000BF00CB00D700E300EF00F6001B01220196
:100300007401C601180247027B02910211241FBE2C
:10031000CFE5D2E0DEBFCDBF10E0A0E6B0E0ECE07C
:10032000F1E102C005900D92A636B107D9F710E0B1
:10033000A6E6B0E001C01D92A03AB107E1F7F4D300
:10034000E3C65ECE282F882311F0B89801C0B89A72
:10035000BA9885E8982F9A95F1F7BA9A8A95F1F7A5
:100360002111B89A85E88A95F1F70895B898BA9856
:1003700095E8892F8A95F1F786B3BA9A9A95F1F79D
:100380008170089588B38A7F88BBBA98B89885E849
:100390008A95F1F7089587B38A7F87BB85E8982F00
:1003A0009A95F1F7B89A982F9A95F1F7BA9A8A9593
:1003B000F1F70895BA9885E8982F9A95F1F7B898CB
:1003C0008A95F1F708950F931F93082F10E0802F5F
:1003D0008078B8DF000F1F5F1830C9F7C7DF1F91A3
:1003E0000F910895FF920F931F93F82E00E010E0F5
:1003F000000FBCDF082B1F5F1830D1F7FF2011F072
:1004000080E001C081E09EDF85E88A95F1F7802FCA
:100410001F910F91FF900895809166009091670061
:10042000892B31F482ED94E090936700809366000D
:100430002091660030916700220F331FC9016BE7DE
:1004400070E017D6CB0162EE7EEFE1D5FC01C90169
:100450006BE770E00ED667E976E0D9D5E80FF91FB3
:10046000F0936700E09366008E2F08950F931F931B
:10047000082F162F6623D9F06F3F11F4CDDF16C079
:10048000CBDF612FD6D5892F90E0002319F0169588
:10049000811B9109800F911D97FF02C080E090E0C1
:1004A0008F3F910519F014F08FEF90E0082F802F07
:1004B0001F910F910895282FE62F6623E9F06F3FD3
:1004C00011F4242F19C0842F90E070E0A0D56FEFB5
:1004D00070E0CFD530E0E6952E1B3109260F371F8F
:1004E00037FF02C020E030E0C9012F3F310519F08D
:1004F00014F08FEF90E0282F822F0895FF920F9332
:100500001F93262F662359F440938800809188001A
:100510008093920080919200809386006CC0E82FB7
:100520008C3F08F0EBEF142F4C3F08F01BEF8E2FA1
:100530006AE27FD5482F90E06AE270E068D5FE2E2F
:10054000F81A622F2C3F08F06BEF8BEF90E0861BC0
:100550009109612F70E05BD56BEF70E08AD5FB01EC
:10056000212F30E0C901861B970B6F2D70E04FD50E
:1005700069E270E06AD5062F8F2D90E0BF01621B03
:10058000730B899744D569E270E05FD54230D1F0B2
:10059000433028F4442351F0413069F50CC0443015
:1005A000E9F04430B0F0453031F51FC010938600BB
:1005B0000093920004C06093860010939200E09331
:1005C000880019C0E0938600109392000093880081
:1005D00012C0E09386006093920004C000938600EE
:1005E000E09392001093880006C010938600E09379
:1005F0009200609388001F910F91FF9008951F92C1
:100600000F920FB60F9211242F933F934F935F9346
:100610006F938F939F93809169008F5F80936900A0
:1006200080916900883009F063C01092690056B764
:100630004091860060919700252F30E0241B3109FE
:1006400037FF03C0309521953F4F862F90E08217EA
:1006500093074CF4541739F0541718F4462F450FEC
:1006600002C0452F461B46BF5CB740919200609187
:100670009700252F30E0241B310937FF03C0309548
:1006800021953F4F862F90E0821793074CF4541723
:1006900039F0541718F4462F450F02C0452F461B5A
:1006A0004CBF88B599B5582F40918800609197004C
:1006B000282F30E0241B310937FF03C030952195E6
:1006C0003F4F862F90E0821793074CF4541739F070
:1006D000541718F4452F460F02C0452F461B842F90
:1006E00090E099BD88BD80919F008F5F80939F00AF
:1006F0009F918F916F915F914F913F912F910F90AB
:100700000FBE0F901F9018958091960090919300C6
:1007100020917D0030917E00882371F4892F90E034
:1007200065E070E074D4280F391F8AE890E0B901C1
:1007300045E050E0BAD40DC0892F90E065E070E04C
:1007400066D4280F391F8AE890E0B90145E050E0EF
:10075000A3D44091940047FF10C020918A0030E05C
:10076000842F992787FD9095909581959F4F281705
:1007700039071CF410928A0005C080918A00480F46
:1007800040938A0080918B0080939E0080918C0022
:1007900080937F0080918D008093800080918E00F7
:1007A0008093810040D008951F93282F162F109218
:1007B0009F004093930080939600882389F487E0FC
:1007C00090E083D48093870088E090E07ED480938B
:1007D0009D0089E090E090937E0080937D001CC096
:1007E00081E090E0821B91096EEF7FEF10D4885179
:1007F0009D4FFC0125913491F901849180938700EC
:100800002F5F3F4FF901849180939D002F5F3F4FF1
:1008100030937E0020937D00112311F010939D00F2
:1008200073DF1F9108950F931F9380919E00883668
:1008300009F46BC08936C0F48B3409F4F1C08C34F0
:1008400050F4883409F46EC0893409F4C2C083348A
:1008500009F04CC144C08336B9F1863609F485C02D
:10086000843509F043C192C08E36E1F08F3650F4E2
:100870008A3609F493C08A3608F495C08B3609F09D
:1008800035C1B4C0833709F4F9C0843720F4803708
:1008900009F02CC162C0843709F473C0873709F0AE
:1008A00025C1E0C080917F008093860086BF809143
:1008B0008000809392008CBF80918100809388009B
:1008C00090E099BD88BD12C180917F008093860021
:1008D00080918000809392008091810013C080916C
:1008E000860060917F00C2DD809386008091920037
:1008F00060918000BBDD80939200809188006091C0
:100900008100B4DD80938800F1C080917F008093E6
:100910009500609180006093620040918100409357
:1009200063009EC08091950060917F009FDD809361
:100930009500809162006091800098DD8093620054
:10094000809163006091810091DD482F8093630066
:10095000809195006091620083C080917F006091DA
:1009600080004091810020DFC1C080917F008823FA
:1009700019F481E080937F0080917F00809397003D
:10098000B5C080917F0080939400B0C080918A00B0
:1009900060917F006BDD80938A00A8C080919300F6
:1009A00090917F0011C0E0917F00FF27E7FDF09557
:1009B000E756FF4F908180918000891708F096C01C
:1009C0008091930090918100890F815080939300D2
:1009D0008DC080917F00809364008091800080931F
:1009E0006500809181008093890080C0809186009D
:1009F00060917F00409199005EDD80938600809138
:100A000092006091800040919A0055DD80939200A1
:100A1000809188006091810040919B004CDD72CFF5
:100A20008091950060917F004091990044DD082FEE
:100A300080939500809162006091800040919A00BF
:100A40003ADD182F809362008091630060918100ED
:100A500040919B0030DD482F80936300802F612FF1
:100A60004DDD44C09091800080E020917F00820F96
:100A7000911D9093900080938F003CC01DB882DC44
:100A800080917F00803779F486DC80919800880F10
:100A90009ADC80E798DC8091800095DC80E093DC34
:100AA0008091810008C08F3649F475DC80919800F0
:100AB000880F89DC8FE687DC7DDC15C0863611F077
:100AC000843759F468DC80919800880F7CDC809131
:100AD0007F0079DC80918000EECF813621F4809117
:100AE00080008093980080916800ACD110929000B3
:100AF00010928F001F910F9108950F931F93CF9322
:100B0000DF930FE710E0C82FD0E0C00FD11F04C063
:100B1000BFD1F80181938F010C171D07C9F7DF9131
:100B2000CF911F910F910895BF92CF92DF92EF92D4
:100B3000FF920F931F93DF93CF9300D000D00F92BB
:100B4000CDB7DEB7BA9A8AB3806A8ABB85E886B920
:100B500017B881B18F6081B91C9A369A3699FECF49
:100B6000369A3699FECF85B18093910081E090E06E
:100B7000ACD2D82E82E090E0A8D2E82E83E090E0BC
:100B8000A4D2F82E84E090E0A0D2182F85E090E067
:100B90009CD2082F80E090E098D218160CF089E0E3
:100BA00051D181EA80BF93E093BF81E28FBD9EBDAA
:100BB000609A1093970080919700882319F48AE037
:100BC000809397000093940081E0D81621F48E2D35
:100BD0006F2D40E0E9DD789420E3B22E7E01089489
:100BE000E11CF11C00E117E29AE1D92ECC24CA9451
:100BF00062D1882309F4C1C04BD180939E0090E05C
:100C0000FC01E154F040E433F10508F0B6C0EF5EBA
:100C1000FF4F09941092900010928F00109287005D
:100C2000ACC081E001C083E068DFFDDDA6C086B70F
:100C30001ED18CB71CD188B599B59EC080E090E0DC
:100C400044D29AC0109282001092810010928000CB
:100C500010927F0084E051DF60917F00662309F4E9
:100C60008CC080918200681709F087C08091800055
:100C7000803D09F082C0809181008D3009F07DC0F7
:100C800080E090E033D280917F00DCD0C8010197F2
:100C9000F1F773C081E6EBD082E66EC082E02DDF13
:100CA00080917F00882309F068C08091800090E0E7
:100CB00065E070E0ACD1BC01675F7F4FC70145E0E4
:100CC00050E0F3D18981D3D08A81D1D08B81CFD02C
:100CD0008C81CDD08D8150C087E00FDF80917F0067
:100CE000882309F04AC080918000813308F045C014
:100CF00090E065E070E08BD1BC01675F7F4F81E8D9
:100D000090E01DC083E0F9DE80917F008823A9F583
:100D100080918000813310F0B092800087E090E0F5
:100D200060918000E3D188E090E060918100DED1A5
:100D300024C085E0E2DE8FE790E061E070E045E00E
:100D400050E0CBD11AC081E0D8DE80917F008823AB
:100D500041F487E090E0B9D18AD088E090E0B5D145
:100D600086D08091990083D080919A0080D0809124
:100D70009B007DD080919C007AD0369911C0E7B15C
:100D800085B1F0E0E756FF4F808387B18F5F87B969
:100D900087B1843009F417B88D2D8A95F1F7369A0A
:100DA000E0916400EF3F89F0909165009F3F69F00A
:100DB000F0E0E756FF4F8081981738F48091890062
:100DC000815080939300C0929F00409187004423FC
:100DD00009F40ECF20918F0030919000211531053C
:100DE00071F080919F00893908F402CF2150304082
:100DF0003093900020938F0010929F00F9CE909135
:100E00009F0080918A00981708F4F2CE10929F00FC
:100E1000809193008F5F80939300841789F41092E0
:100E2000930080919D00815080939D008F3F19F425
:100E300010929D0005C0882319F410928700D8CE27
:100E400063DCD6CE109276001092750010927C0072
:100E500010927B0080936A008AB380658ABBDC9A1B
:100E6000DE9AD69888EA8DB980EF8EB90895282F3A
:100E700090917B009F5F937080917C009817E1F3C5
:100E8000E92FF0E0E958FF4F208390937B0008950D
:100E900090917500809176009817D1F3809176003B
:100EA0008F5F877080937600E0917600F0E0E359E1
:100EB000FF4F80810895909175008091760020E029
:100EC000981321E0822F08951F920F920FB60F9270
:100ED00011248F9310926C0010926B00D698CC9BCB
:100EE00002C0CE9BFCCFCE9902C088EF01C088EA39
:100EF0008DB980EF8EB98F910F900FBE0F901F901C
:100F000018951F920F920FB60F9211248F939F93F3
:100F1000EF93FF9380916B0090916C00823091056C
:100F200009F443C08330910530F4009779F00197BC
:100F300009F064C01CC08430910509F43FC08430BE
:100F4000910590F0059709F059C041C08FB18823F1
:100F500031F08FB1869590916A00891719F5789BC9
:100F600043C081E090E042C08FB18823D9F49091D2
:100F70007B0080917C009817A9F080917C008F5FA6
:100F8000837080937C00E0917C00F0E0E958FF4F93
:100F900080818FB982E090E090936C0080936B0029
:100FA000D69A13C088EA8DB910C083E090E0909380
:100FB0006C0080936B00D6981FB81EC085E090E04F
:100FC00090936C0080936B00D69880E716C0809158
:100FD00075008F5F877080937500E09175008FB109
:100FE000F0E0E359FF4F808384E090E090936C0041
:100FF00080936B001FB8D69A8EE78EB9FF91EF9160
:101000009F918F910F900FBE0F901F9018955527AD
:10101000002480FF02C0060E571F660F771F611560
:10102000710521F096958795009799F7952F802D5A
:101030000895991B79E004C0991F961708F0961B34
:10104000881F7A95C9F780950895AA1BBB1B51E1AB
:1010500007C0AA1FBB1FA617B70710F0A61BB70B28
:10106000881F991F5A95A9F780959095BC01CD01CD
:10107000089597FB092E07260AD077FD04D0E5DFF7
:1010800006D000201AF4709561957F4F0895F6F709
:10109000909581959F4F0895FB01DC0102C005905A
:1010A0000D9241505040D8F70895DC01CB01FC016E
:1010B000E199FECF06C0FFBBEEBBE09A31960DB2C0
:1010C0000D9241505040B8F70895E199FECF9FBB73
:1010D0008EBBE09A99278DB30895DC01CB0102C045
:1010E0002D9105D041505040D8F70895262FE19911
:1010F000FECF1CBA9FBB8EBB2DBB0FB6F894E29AF5
:0C110000E19A0FBE01960895F894FFCF0D
:06110C003200FFFFFFFFAF
:00000001FF
