:1000000083C19DC19CC19BC136C377C398C197C1B1
:1000100096C195C194C193C192C1AAC7C6C764C60F
:10002000DCC651C6FCC6FBC6FAC6F9C64CC6F7C646
:10003000F6C6F5C6BAC6F3C6F2C6F1C6F0C6EFC636
:1000400080C6EDC6ECC6EBC6EAC699C6E8C6E7C6EA
:1000500074C6E5C6E4C6E3C6E2C6E1C6E0C640C66D
:10006000DEC631C6DCC6DBC62CC631C62CC6CBC646
:10007000D6C6D5C6BAC6D3C626C61CC624C6CFC6E3
:10008000CEC6CDC61EC603003263FF000032630039
:10009000FF0032630000FF02001463FFFFFF1463E0
:1000A00000000002001463FF00001463000000025F
:1000B00000146300FF0014630000000200146300DA
:1000C00000FF14630000000200146300FFFF1463CC
:1000D00000000002001463FF00FF14630000000230
:1000E000001463FFFF0014630000000100146300AC
:1000F000000007001E6800FFFF1E682AFFFF1E6841
:1001000054FFFF1E687EFFFF1E68A8FFFF1E68D217
:10011000FFFF1E68FFFFFF01003248800000100053
:1001200001660A0000326810FFFF02480000301B21
:1001300048001010024800101007480000200A482C
:100140000000400A480000400A4800002032680AC7
:10015000FFFF016628000005480000FF014800007D
:1001600040014800001005480000400548000030EC
:10017000100001660A000014688CFFFF02480500A9
:10018000300248050010024805001007480500200D
:100190000A480500400A481500400A480500201496
:1001A00068A0FFFF016614000005480500400148F3
:1001B00005004001480500100548050020054805D8
:1001C0000030100001660A000014680AFFFF0248B0
:1001D00005002002480500100248050010074805E8
:1001E00000200A480500400A481500400A4805005A
:1001F0002014680EFFFF01661E000005480500FF81
:10020000014805004001480500100548050020058B
:100210004805003009000166040000646846FFFFDD
:1002200032480A0000646880FFFF32480A00006418
:100230006814FFFF32480A00006468C840FF324873
:100240000A00000A0001660100006468B4FF20147F
:10025000480010106468AFFF200166C80000026803
:10026000BC00FF0268B200000468BC00FF01661E0B
:1002700000002868ACFF1004000166640000646898
:1002800000FFFF64685AFFFF1E6830FFFF11000186
:10029000666400000563FFFFFF056300000005635F
:1002A000FFFFFF05630000000563FFFFFF0A630017
:1002B00000000A63FFFFFF0A630000000A63FFFFFC
:1002C000FF0A630000000563FFFFFF0563000000F5
:1002D0000563FFFFFF05630000000563FFFFFF14D8
:1002E0006300000086009700A300AF00BB00C700BA
:1002F000D300DF00EB00F20017011E017001C20104
:100300001402430277028D0211241FBECFE5D2E012
:10031000DEBFCDBF10E0A0E6B0E0E0E9F1E102C051
:1003200005900D92A836B107D9F710E0A8E6B0E025
:1003300001C01D92A73AB107E1F73BD428C760CEB0
:10034000282F882311F0B89801C0B89ABA9895E878
:10035000892F8A95F1F7BA9A892F8A95F1F7211199
:10036000B89A9A95F1F70895B898BA9825E8822F27
:100370008A95F1F786B3BA9A2A95F1F79927817091
:100380009070089588B38A7F88BBBA98B89885E83A
:100390008A95F1F7089587B38A7F87BB85E8982F00
:1003A0009A95F1F7B89A982F9A95F1F7BA9A8A9593
:1003B000F1F70895BA9885E8982F9A95F1F7B898CB
:1003C0008A95F1F708950F931F93182F00E0812F5E
:1003D0008078B6DF110F0F5F0830C9F7C5DF9927A6
:1003E0001F910F910895FF920F931F93F82E00E035
:1003F00010E0000FB9DF082B1F5F1830D1F7FF2086
:1004000011F080E001C081E09BDF85E88A95F1F77B
:10041000802F99271F910F91FF9008958091680078
:1004200090916900892B31F482ED94E090936900FA
:10043000809368002091680030916900220F331F7B
:10044000C9016BE770E072D667E976E03DD6FC0142
:10045000C9016BE770E06AD6CB016EE171E034D67A
:10046000E81BF90BF0936900E09368008E2F992741
:100470000895582FE62FFF27282F33272E1B3F0BD9
:1004800037FF03C0309521953F4F842F992782175E
:1004900093075CF4561749F0561720F4450FE42FE4
:1004A000FF2703C0541BE52FFF27CF0108950F93AB
:1004B0001F93082F162F662311F499271BC06F3F37
:1004C00011F4ACDF16C0AADF612F10D6892F99274F
:1004D000002319F01695811B9109800F911D97FF3C
:1004E00002C080E090E08F3F910519F014F08FEF8B
:1004F00090E099271F910F910895382F262F66239A
:1005000011F499270895842F99276F3FC9F0772711
:10051000DBD56FEF70E00AD6832F99272695821BD3
:100520009109860F971F97FF02C080E090E0AC0111
:100530008F3F910519F014F04FEF50E0842F992769
:100540000895CF92DF92FF920F931F93CF93DF9383
:10055000CDB7DEB722970FB6F894DEBF0FBECDBF82
:10056000262F662359F44093890080918900809357
:10057000930080919300809387006FC0E82F8C3F99
:1005800008F0EBEFF42E8BEF841710F49BEFF92EAD
:100590008E2F6AE2ABD5482F99276AE270E094D596
:1005A0001E2F181B622F2C3F08F06BEF2F2D3327C7
:1005B0008BEF90E0861B9109B90186D56BEF70E057
:1005C000B5D56B01E12FFF27FA83E983C901861BAB
:1005D000970BBF0179D569E270E094D58B01B60124
:1005E000621B730BCF0189976FD569E270E08AD5E2
:1005F0004230D1F0433028F4442351F0413069F5C2
:100600000CC04430E9F04430B0F0453031F51FC043
:10061000F09287000093930004C060938700F092EB
:100620009300C092890019C0C0928700F092930095
:100630000093890012C0C09287006093930004C0A9
:1006400000938700C0929300F092890006C0F09258
:100650008700C09293006093890022960FB6F894A9
:10066000DEBF0FBECDBFDF91CF911F910F91FF90E5
:10067000DF90CF9008951F920F920FB60F92112422
:100680002F933F934F935F936F937F938F939F939A
:10069000AF93BF93EF93FF9340919E0060918700CB
:1006A00080919800E6DE8093980040919E006091D2
:1006B000930080919900DDDE8093990040919E0027
:1006C0006091890080919700D4DE8093970080919B
:1006D000A6008F5F8093A600FF91EF91BF91AF912D
:1006E0009F918F917F916F915F914F913F912F914A
:1006F0000F900FBE0F901F9018951F920F920FB67C
:100700000F9211248F939F9380916700992781FF07
:1007100002C0C19A01C0C19883FF02C0C39A01C040
:10072000C39884FF02C0C49A01C0C4989091660027
:100730009F5F90936600992379F48091970080934E
:100740009B008091980080939C00809199008093F9
:100750009D008AE18093670080919B00891729F4AE
:10076000809167008D7F8093670080919C0089173E
:1007700029F480916700877F8093670080919D00B6
:10078000891729F4809167008F7E809367009F917D
:100790008F910F900FBE0F901F90189580919A0027
:1007A0009091940020917E0030917F00EBE8F0E082
:1007B000882361F4892F992765E070E085D4DC01F6
:1007C000A20FB31F85E0182ECCD40CC0892F992717
:1007D00065E070E079D4280F391F45E050E0B90199
:1007E000CF0169D44091950047FF10C020918B0044
:1007F0003327842F992787FD9095909581959F4F5A
:10080000281739071CF410928B0005C080918B00CB
:10081000480F40938B0080918C008093A5008091BD
:100820008D008093800080918E0080938100809164
:100830008F00809382003AD008951092A6004093D2
:10084000940080939A008823A9F447E050E0DA01ED
:1008500080D4802D809388004F5F5F4FDA0179D478
:10086000802D8093A4004F5F5F4F50937F00409393
:100870007E0016C0E82FFF27EE0FFF1FEE51FD4F41
:1008800085919491FC012491209388000196FC01AC
:1008900024912093A400019690937F0080937E0082
:1008A000662311F06093A40079DF08950F931F93DE
:1008B0008091A500883609F46CC08936C0F48B3469
:1008C00009F4EDC08C3450F4883409F46FC08934D5
:1008D00009F4BDC0833409F049C145C08336C1F174
:1008E000863609F487C0843509F040C194C08E363D
:1008F000E1F08F3650F48A3609F495C08A3608F450
:1009000097C08B3609F032C1B0C0833709F4F6C006
:10091000843720F4803709F029C164C0843709F492
:1009200075C0873709F022C1DBC0809180008093B9
:10093000870080939800809181008093930080933A
:1009400099008091820080938900809397000EC166
:100950008091800080938700809181008093930034
:100960008091820013C060918000809187009FDD9C
:1009700080938700609181008091930098DD80933F
:100980009300609182008091890091DD80938900BD
:10099000EDC080918000809396006091810060930B
:1009A000620040918200409363001AC06091800011
:1009B000809196007CDD809396006091810080910B
:1009C000620075DD80936200609182008091630017
:1009D0006EDD8093630060916200482F80919600E5
:1009E000B0DDC4C0409182006091810080918000A0
:1009F00024DFBCC080918000882319F481E08093BB
:100A000080008091800080939E00B0C08091800023
:100A100080939500ABC06091800080918B0047DD92
:100A200080938B00A3C080919400909180000AC0B5
:100A300080918000803408F09EC098C0809194001E
:100A400090918200890F8150809394008FC0809193
:100A500080008054809364008091810080936500C1
:100A60008091820080938A0081C0809187004091AC
:100A7000A0006091800041DD809387008091930009
:100A80004091A1006091810038DD809393008091B6
:100A900089004091A200609182002FDD77CF4091C4
:100AA000A000609180008091960027DD082F809340
:100AB00096004091A10060918100809162001DDD4F
:100AC000182F809362004091A20060918200809173
:100AD000630013DD80936300482F612F802F80CF48
:100AE000809181009927982F882720918000820F7C
:100AF000911D909391008093900045C01DB842DCF9
:100B000080918000803779F446DC80919F00880FC7
:100B10005ADC80E758DC8091810055DC80E053DCB2
:100B20008091820008C08F3649F435DC80919F00A7
:100B3000880F49DC8FE647DC3DDC15C0863611F0B6
:100B4000843759F428DC80919F00880F3CDC809129
:100B5000800039DC80918100EECF813621F48091D4
:100B6000810080939F0080916A00BCD11092910017
:100B70001092900008C09091DF0080918100891749
:100B800008F45CCFF3CF1F910F9108950F931F933B
:100B9000CF93DF93082FC0E8D0E010E003C0C8D1A6
:100BA00089931F5F1017D9F7DF91CF911F910F9194
:100BB0000895CAE5D2E0DEBFCDBF85E088BB8AE1FB
:100BC00087BB85E886B983E087B91D9A369A36993E
:100BD000FECF369A3699FECF85B180939200A1E080
:100BE000B0E0B7D2E02CA2E0B0E0B3D2D02CA3E0CA
:100BF000B0E0AFD2F02CA4E0B0E0ABD2102DA5E075
:100C0000B0E0A7D2002DA0E0B0E0A3D2802D18164E
:100C10000CF089E067D181E083BF82E088BF89BFA3
:100C20008BE080BF88B7846088BF89B7846089BF44
:100C300010939E0080919E00882319F48AE080938F
:100C40009E000093950081E0E81621F440E06F2DAE
:100C50008D2DF3DD789407E010E068010894C11C45
:100C6000D11C70E8A72E70E0B72E61E0462E60E040
:100C7000562E52E0652E712C6A0C7B1C4E01089496
:100C8000811C911C40E0E42E40E0F42E65D18823C5
:100C900009F4C5C04DD18093A5009927AA27BB2789
:100CA000FC01E154F040E433F10508F0B8C0E15F25
:100CB000FF4F0994109291001092900010928800BA
:100CC000AEC081E001C083E061DFF0DDA8C08091AB
:100CD00098001DD1809199001AD1809197009EC0F3
:100CE000D70137D2802D9AC01092830010928200D3
:100CF000109281001092800084E048DF9091800083
:100D0000992309F48CC080918300981709F087C05B
:100D100080918100803D09F082C0809182008D30F9
:100D200009F07DC0D701092E21D280918000DAD050
:100D300080E197E20197F1F772C081E6E8D084E69E
:100D40006DC082E023DF80918000882309F067C0B6
:100D500080918100992765E070E0B6D1DC01A75F42
:100D6000BF4F85E0F401182EFCD18981D0D08A8153
:100D7000CED08B81CCD08C81CAD08D814FC087E002
:100D800005DF80918000882309F049C080918100AF
:100D9000813308F044C0992765E070E095D1DC010B
:100DA000A75FBF4F85E0F3011DC083E0EFDE8091B8
:100DB00080008823A1F580918100813318F080E3C1
:100DC0008093810080918100D801082ECFD180913D
:100DD0008200D601082ECAD122C085E0D7DE85E088
:100DE000D201F501182ECED11AC081E0CFDE80915C
:100DF0008000882341F4D801ACD1802D88D0D60161
:100E0000A8D1802D84D08091A00081D08091A100B4
:100E10007ED08091A2007BD08091A30078D086B351
:100E2000992780FF02C02FEF01C020E02093A0008F
:100E300082FF02C08FEF01C080E08093A100E091AB
:100E40006400EF3F91F0909165009F3F71F0FF27A4
:100E5000E056FF4F8081981740F480918A008150BE
:100E6000809394008FEF8093A600409188004423E4
:100E700009F40CCF2091900030919100211531059B
:100E800071F08091A600893908F400CF21503040DC
:100E900030939100209390001092A600F7CE90918D
:100EA000A60080918B00981708F4F0CE1092A6004F
:100EB000809194008F5F80939400841789F410923E
:100EC00094008091A40081508093A4008F3F19F476
:100ED0001092A40005C0882319F410928800D6CE81
:100EE0005DDCD4CE109277001092760010927D00D7
:100EF00010927C0080936B0087B3856087BBC29A99
:100F0000C09AB89888EA8DB980EF8EB90895282FD5
:100F100090917C009F5F937080917D009817E1F322
:100F2000E92FFF27E858FF4F208390937C00089516
:100F300090917600809177009817D1F38091770097
:100F40008F5F877080937700E0917700FF27E259E9
:100F5000FF4F8081992708959091760080917700C6
:100F600020E030E0981711F021E030E0C901089549
:100F70001F920F920FB60F9211248F9310926D0053
:100F800010926C00B898B29B02C0B09BFCCFB09995
:100F900002C088EF01C088EA8DB980EF8EB98F91C9
:100FA0000F900FBE0F901F9018951F920F920FB6C3
:100FB0000F9211248F939F93EF93FF9380916C0076
:100FC00090916D008230910509F443C08330910502
:100FD00030F4009779F0019709F064C01CC08430A8
:100FE000910509F43FC08430910590F0059709F010
:100FF00059C041C08FB1882331F08FB1869590914F
:101000006B00891719F5789B43C081E090E042C0DE
:101010008FB18823D9F490917C0080917D0098173E
:10102000A9F080917D008F5F837080937D00E091B7
:101030007D00FF27E858FF4F80818FB982E090E064
:1010400090936D0080936C00B89A13C088EA8DB9B4
:1010500010C083E090E090936D0080936C00B8988E
:101060001FB81EC085E090E090936D0080936C00E7
:10107000B89880E716C0809176008F5F8770809364
:101080007600E09176008FB1FF27E259FF4F808311
:1010900084E090E090936D0080936C001FB8B89A44
:1010A0008EE78EB9FF91EF919F918F910F900FBEB8
:1010B0000F901F901895FB01DC0102C005900D9266
:1010C00041505040D8F708955527002480FF02C0B2
:1010D000060E571F660F771F6115710521F0969553
:1010E0008795009799F7952F802D0895991B79E0A2
:1010F00004C0991F961708F0961B881F7A95C9F7A8
:1011000080950895AA1BBB1B51E107C0AA1FBB1FF6
:10111000A617B70710F0A61BB70B881F991F5A9583
:10112000A9F780959095BC01CD01089597FB092EF4
:1011300007260AD077FD04D0E5DF06D000201AF498
:10114000709561957F4F0895F6F7909581959F4F23
:101150000895E199FECFBFBBAEBBE09A11960DB2E8
:101160000895F7DF01921A94E1F70895E199FECF0F
:10117000BFBBAEBB0DBA11960FB6F894E29AE19AD6
:101180000FBE08950190F2DF1A94E1F70895FFCFA2
:081190003200FFFFFFFFFF1A10
:00000001FF
