:1000000083C19DC19CC19BC1F8C271C398C197C1F6
:1000100096C195C194C193C192C199C7B5C75BC63A
:10002000D1C648C6F3C6F2C6F1C6F0C643C6EEC690
:10003000EDC6ECC6B0C6EAC6E9C6E8C6E7C6E6C67F
:1000400076C6E4C6E3C6E2C6E1C68FC6DFC6DEC634
:100050006AC6DCC6DBC6DAC6D9C6D8C6D7C637C6B6
:10006000D5C628C6D3C6D2C623C628C623C6C2C68E
:10007000CDC6CCC6B1C6CAC61DC613C61BC6C6C62B
:10008000C5C6C4C615C603003263FF000032630054
:10009000FF0032630000FF02001463FFFFFF1463E0
:1000A00000000002001463FF00001463000000025F
:1000B00000146300FF0014630000000200146300DA
:1000C00000FF14630000000200146300FFFF1463CC
:1000D00000000002001463FF00FF14630000000230
:1000E000001463FFFF0014630000000100146300AC
:1000F000000007001E6800FFFF1E682AFFFF1E6841
:1001000054FFFF1E687EFFFF1E68A8FFFF1E68D217
:10011000FFFF1E68FFFFFF01003248800000100053
:1001200001660A0000326810FFFF02480000301B21
:1001300048001010024800101007480000200A482C
:100140000000400A480000400A4800002032680AC7
:10015000FFFF016628000005480000FF014800007D
:1001600040014800001005480000400548000030EC
:10017000100001660A000014688CFFFF02480500A9
:10018000300248050010024805001007480500200D
:100190000A480500400A481500400A480500201496
:1001A00068A0FFFF016614000005480500400148F3
:1001B00005004001480500100548050020054805D8
:1001C0000030100001660A000014680AFFFF0248B0
:1001D00005002002480500100248050010074805E8
:1001E00000200A480500400A481500400A4805005A
:1001F0002014680EFFFF01661E000005480500FF81
:10020000014805004001480500100548050020058B
:100210004805003009000166040000646846FFFFDD
:1002200032480A0000646880FFFF32480A00006418
:100230006814FFFF32480A00006468C840FF324873
:100240000A00000A0001660100006468B4FF20147F
:10025000480010106468AFFF200166C80000026803
:10026000BC00FF0268B200000468BC00FF01661E0B
:1002700000002868ACFF1004000166640000646898
:1002800000FFFF64685AFFFF1E6830FFFF11000186
:10029000666400000563FFFFFF056300000005635F
:1002A000FFFFFF05630000000563FFFFFF0A630017
:1002B00000000A63FFFFFF0A630000000A63FFFFFC
:1002C000FF0A630000000563FFFFFF0563000000F5
:1002D0000563FFFFFF05630000000563FFFFFF14D8
:1002E0006300000086009700A300AF00BB00C700BA
:1002F000D300DF00EB00F20017011E017001C20104
:100300001402430277028D0211241FBECFE5D2E012
:10031000DEBFCDBF10E0A0E6B0E0E2E9F1E102C04F
:1003200005900D92A836B107D9F710E0A8E6B0E025
:1003300001C01D92A73AB107E1F73CD428C760CEAF
:10034000282F882311F0B89801C0B89ABA9885E888
:10035000982F9A95F1F7BA9A8A95F1F72111B89AE0
:1003600085E88A95F1F70895B898BA9895E8892FA5
:100370008A95F1F786B3BA9A9A95F1F78170089544
:1003800088B38A7F88BBBA98B89885E88A95F1F7D0
:10039000089587B38A7F87BB85E8982F9A95F1F7F0
:1003A000B89A982F9A95F1F7BA9A8A95F1F7089525
:1003B000BA9885E8982F9A95F1F7B8988A95F1F749
:1003C00008950F931F93082F10E0802F8078B8DFD7
:1003D000000F1F5F1830C9F7C7DF1F910F910895F5
:1003E000FF920F931F93F82E00E010E0000FBCDF88
:1003F000082B1F5F1830D1F7FF2011F080E001C0FB
:1004000081E09EDF85E88A95F1F7802F1F910F919B
:10041000FF9008958091680090916900892B31F4D4
:1004200082ED94E0909369008093680020916800C9
:1004300030916900220F331FC9016BE770E05CD671
:10044000CB0162EE7EEF26D6FC01C9016BE770E0BE
:1004500053D667E976E01ED6E80FF91FF0936900DE
:10046000E09368008E2F08950F931F93082F162F87
:100470006623D9F06F3F11F4CDDF16C0CBDF612FBB
:100480001BD6892F90E0002319F01695811B910946
:10049000800F911D97FF02C080E090E08F3F910593
:1004A00019F014F08FEF90E0082F802F1F910F911B
:1004B0000895282FE62F6623E9F06F3F11F4242FCB
:1004C00019C0842F90E070E0E5D56FEF70E014D68E
:1004D00030E0E6952E1B3109260F371F37FF02C08B
:1004E00020E030E0C9012F3F310519F014F08FEF03
:1004F00090E0282F822F0895FF920F931F93262FAD
:10050000662359F440938900809189008093930079
:1005100080919300809387006CC0E82F8C3F08F097
:10052000EBEF142F4C3F08F01BEF8E2F6AE2C4D57F
:10053000482F90E06AE270E0ADD5FE2EF81A622FE7
:100540002C3F08F06BEF8BEF90E0861B9109612F39
:1005500070E0A0D56BEF70E0CFD5FB01212F30E02C
:10056000C901861B970B6F2D70E094D569E270E08E
:10057000AFD5062F8F2D90E0BF01621B730B8997BB
:1005800089D569E270E0A4D54230D1F0433028F437
:10059000442351F0413069F50CC04430E9F0443057
:1005A000B0F0453031F51FC01093870000939300E1
:1005B00004C06093870010939300E093890019C0F2
:1005C000E0938700109393000093890012C0E0939A
:1005D00087006093930004C000938700E09393002A
:1005E0001093890006C010938700E09393006093F6
:1005F00089001F910F91FF9008951F920F920FB6DF
:100600000F9211242F933F934F935F936F938F9388
:100610009F93509198004091870060919E00252FF4
:1006200030E0241B310937FF03C0309521953F4F3F
:10063000862F90E0821793074CF4541739F0541723
:1006400018F4462F450F02C0452F461B40939800D3
:10065000509199004091930060919E00252F30E0C9
:10066000241B310937FF03C0309521953F4F862F5A
:1006700090E0821793074CF4541739F0541718F48C
:10068000462F450F02C0452F461B409399005091BD
:1006900097004091890060919E00252F30E0241B37
:1006A000310937FF03C0309521953F4F862F90E0E9
:1006B000821793074CF4541739F0541718F4462F47
:1006C000450F02C0452F461B409397008091A6001E
:1006D0008F5F8093A6009F918F916F915F914F9153
:1006E0003F912F910F900FBE0F901F9018951F9262
:1006F0000F920FB60F9211248F939F9380916700F2
:1007000081FF02C0C19A01C0C19883FF02C0C39A91
:1007100001C0C39884FF02C0C49A01C0C4989091DC
:1007200066009F5F90936600992379F4809197000B
:1007300080939B008091980080939C008091990009
:1007400080939D008AE18093670080919B008917C8
:1007500029F4809167008D7F8093670080919C00D1
:10076000891729F480916700877F809367008091C3
:100770009D00891729F4809167008F7E8093670020
:100780009F918F910F900FBE0F901F9018958091A1
:100790009A009091940020917E0030917F008823F0
:1007A00071F4892F90E065E070E074D4280F391F50
:1007B0008BE890E0B90145E050E0BAD40DC0892F34
:1007C00090E065E070E066D4280F391F8BE890E078
:1007D000B90145E050E0A3D44091950047FF10C017
:1007E00020918B0030E0842F992787FD909590957C
:1007F00081959F4F281739071CF410928B0005C074
:1008000080918B00480F40938B0080918C008093E7
:10081000A50080918D008093800080918E00809350
:10082000810080918F008093820040D008951F93B3
:10083000282F162F1092A6004093940080939A00C0
:10084000882389F487E090E083D48093880088E04F
:1008500090E07ED48093A40089E090E090937F00A4
:1008600080937E001CC081E090E0821B91096EEFB6
:100870007FEF10D48C519D4FFC0125913491F901EB
:100880008491809388002F5F3F4FF901849180937A
:10089000A4002F5F3F4F30937F0020937E001123F1
:1008A00011F01093A40073DF1F9108950F931F930D
:1008B0008091A500883609F46CC08936C0F48B3469
:1008C00009F4F4C08C3450F4883409F46FC08934CE
:1008D00009F4C4C0833409F04FC145C08336C1F167
:1008E000863609F486C0843509F046C193C08E3639
:1008F000E1F08F3650F48A3609F494C08A3608F451
:1009000096C08B3609F038C1B7C0833709F4FCC0F4
:10091000843720F4803709F02FC163C0843709F48D
:1009200074C0873709F028C1E3C0809180008093AC
:10093000870080939800809181008093930080933A
:10094000990080918200809389008093970014C160
:100950008091800080938700809181008093930034
:100960008091820013C080918700609180007CDDBF
:1009700080938700809193006091810075DD809362
:10098000930080918900609182006EDD80938900E0
:10099000F3C0809180008093960060918100609305
:1009A00062004091820040936300A0C08091960055
:1009B0006091800059DD8093960080916200609183
:1009C000810052DD8093620080916300609182001B
:1009D0004BDD482F80936300809196006091620008
:1009E00085C08091800060918100409182001FDF6E
:1009F000C3C080918000882319F481E08093800037
:100A00008091800080939E00B7C080918000809389
:100A10009500B2C080918B006091800025DD8093AD
:100A20008B00AAC0809194009091800012C0E09148
:100A30008000E054FF27E7FDF095E056FF4F9081DE
:100A400080918100891708F097C08091940090915F
:100A50008200890F8150809394008EC08091800025
:100A60008054809364008091810080936500809120
:100A7000820080938A0080C080918700609180000E
:100A80004091A00016DD80938700809193006091D3
:100A900081004091A1000DDD809393008091890039
:100AA000609182004091A20004DD70CF8091960099
:100AB000609180004091A000FCDC082F809396009C
:100AC00080916200609181004091A100F2DC182FBA
:100AD0008093620080916300609182004091A20047
:100AE000E8DC482F80936300802F612F05DD44C030
:100AF0009091810080E020918000820F911D909361
:100B00009100809390003CC01DB83ADC8091800039
:100B1000803779F43EDC80919F00880F52DC80E7BB
:100B200050DC809181004DDC80E04BDC80918200C4
:100B300008C08F3649F42DDC80919F00880F41DC7E
:100B40008FE63FDC35DC15C0863611F0843759F46A
:100B500020DC80919F00880F34DC8091800031DCA4
:100B600080918100EECF813621F4809181008093C5
:100B70009F0080916A00A9D110929100109290007C
:100B80001F910F9108950F931F93CF93DF9300E868
:100B900010E0C82FD0E0C00FD11F04C0BCD1F801B5
:100BA00081938F010C171D07C9F7DF91CF911F911A
:100BB0000F910895CF92DF92EF92FF920F931F93C0
:100BC000DF93CF9300D000D00F92CDB7DEB785E092
:100BD00088BB8AE187BB85E886B983E087B91D9A1F
:100BE000369A3699FECF369A3699FECF85B18093E4
:100BF000920081E090E0ACD2D82E82E090E0A8D2C2
:100C0000E82E83E090E0A4D2F82E84E090E0A0D219
:100C1000182F85E090E09CD2082F80E090E098D2D9
:100C200018160CF089E051D181E083BF82E088BFC3
:100C300089BF8BE080BF88B7846088BF89B7846034
:100C400089BF10939E0080919E00882319F48AE04A
:100C500080939E000093950081E0D81621F48E2D9C
:100C60006F2D40E0E4DD789420E3C22E8E010F5F0B
:100C70001F4F90E1E92E97E2F92EDD24DA945ED140
:100C8000882309F4C3C047D18093A50090E0FC01FC
:100C9000E154F040E433F10508F0B8C0E15FFF4FE4
:100CA0000994109291001092900010928800AEC0AA
:100CB00081E001C083E067DFF9DDA8C08091980082
:100CC00019D18091990016D1809197009EC080E043
:100CD00090E03ED29AC0109283001092820010924F
:100CE00081001092800084E04EDF609180006623D6
:100CF00009F48CC080918300681709F087C0809147
:100D00008100803D09F082C0809182008D3009F021
:100D10007DC080E090E02DD280918000D6D0C701C8
:100D20000197F1F773C081E6E5D085E66EC082E0F9
:100D30002ADF80918000882309F068C080918100BB
:100D400090E065E070E0A6D1BC01675F7F4FC8010D
:100D500045E050E0EDD18981CDD08A81CBD08B8127
:100D6000C9D08C81C7D08D8150C087E00CDF8091C5
:100D70008000882309F04AC080918100813308F007
:100D800045C090E065E070E085D1BC01675F7F4FB2
:100D900082E890E01DC083E0F6DE80918000882329
:100DA000A9F580918100813310F0C092810087E025
:100DB00090E060918100DDD188E090E06091820058
:100DC000D8D124C085E0DFDE80E890E061E070E00B
:100DD00045E050E0C5D11AC081E0D5DE80918000A9
:100DE000882341F487E090E0B3D184D088E090E09C
:100DF000AFD180D08091A0007DD08091A1007AD029
:100E00008091A20077D08091A30074D086B390E047
:100E100080FD9FEF9093A00082FD02C080E001C0A2
:100E20008FEF8093A100E0916400EF3F89F09091F3
:100E300065009F3F69F0F0E0E056FF4F8081981712
:100E400038F480918A00815080939400D092A6005B
:100E500040918800442309F412CF209190003091F2
:100E600091002115310571F08091A600893908F4AF
:100E700006CF215030403093910020939000109283
:100E8000A600FDCE9091A60080918B00981708F4E3
:100E9000F6CE1092A600809194008F5F809394000C
:100EA000841789F4109294008091A400815080935B
:100EB000A4008F3F19F41092A40005C0882319F4F0
:100EC00010928800DCCE63DCDACE109277001092AC
:100ED000760010927D0010927C0080936B0087B3A7
:100EE000856087BBC29AC09AB89888EA8DB980EFAE
:100EF0008EB90895282F90917C009F5F9370809108
:100F00007D009817E1F3E92FF0E0E858FF4F2083C8
:100F100090937C00089590917600809177009817C7
:100F2000D1F3809177008F5F877080937700E09195
:100F30007700F0E0E259FF4F8081089590917600AC
:100F40008091770020E0981321E0822F08951F926E
:100F50000F920FB60F9211248F9310926D00109282
:100F60006C00B898B29B02C0B09BFCCFB09902C095
:100F700088EF01C088EA8DB980EF8EB98F910F900C
:100F80000FBE0F901F9018951F920F920FB60F92E1
:100F900011248F939F93EF93FF9380916C00909116
:100FA0006D008230910509F443C08330910530F41F
:100FB000009779F0019709F064C01CC08430910556
:100FC00009F43FC08430910590F0059709F059C0AD
:100FD00041C08FB1882331F08FB1869590916B001D
:100FE000891719F5789B43C081E090E042C08FB12A
:100FF0008823D9F490917C0080917D009817A9F006
:1010000080917D008F5F837080937D00E0917D00F3
:10101000F0E0E858FF4F80818FB982E090E0909334
:101020006D0080936C00B89A13C088EA8DB910C027
:1010300083E090E090936D0080936C00B8981FB8A7
:101040001EC085E090E090936D0080936C00B8988E
:1010500080E716C0809176008F5F8770809376005E
:10106000E09176008FB1F0E0E259FF4F808384E099
:1010700090E090936D0080936C001FB8B89A8EE753
:101080008EB9FF91EF919F918F910F900FBE0F90AE
:101090001F9018955527002480FF02C0060E571F89
:1010A000660F771F6115710521F09695879500975A
:1010B00099F7952F802D0895991B79E004C0991F09
:1010C000961708F0961B881F7A95C9F780950895A2
:1010D000AA1BBB1B51E107C0AA1FBB1FA617B7075E
:1010E00010F0A61BB70B881F991F5A95A9F780957A
:1010F0009095BC01CD01089597FB092E07260AD0D3
:1011000077FD04D0E5DF06D000201AF470956195D4
:101110007F4F0895F6F7909581959F4F0895FB01B5
:10112000DC0102C005900D9241505040D8F708955F
:10113000DC01CB01FC01E199FECF06C0FFBBEEBB99
:10114000E09A31960DB20D9241505040B8F7089593
:10115000E199FECF9FBB8EBBE09A99278DB308958E
:10116000DC01CB0102C02D9105D041505040D8F791
:101170000895262FE199FECF1CBA9FBB8EBB2DBBD5
:101180000FB6F894E29AE19A0FBE01960895F8948A
:02119000FFCF8F
:081192003200FFFFFFFFFF1A0E
:00000001FF
