:1000000083C19DC19CC19BC10FC288C298C197C1C9
:1000100096C195C194C193C192C17FC59BC594C43B
:1000200009C581C410C50FC50EC50DC57CC40BC55F
:100030000AC509C5B5C407C506C505C504C503C5B8
:10004000C7C401C500C5FFC4FEC4E0C4FCC4FBC4F2
:10005000A3C4F9C4F8C4F7C4F6C4F5C4F4C470C4A6
:10006000F2C461C4F0C4EFC45CC461C45CC4EBC43A
:10007000EAC4E9C4E8C4E7C456C450C454C4E3C4E1
:10008000E2C4E1C44EC403003263FF0000326300E7
:10009000FF0032630000FF02001463FFFFFF1463E0
:1000A00000000002001463FF00001463000000025F
:1000B00000146300FF0014630000000200146300DA
:1000C00000FF14630000000200146300FFFF1463CC
:1000D00000000002001463FF00FF14630000000230
:1000E000001463FFFF0014630000000100146300AC
:1000F000000007001E6800FFFF1E682AFFFF1E6841
:1001000054FFFF1E687EFFFF1E68A8FFFF1E68D217
:10011000FFFF1E68FFFFFF01003248800000100053
:1001200001660A0000326810FFFF02480000301B21
:1001300048001010024800101007480000200A482C
:100140000000400A480000400A4800002032680AC7
:10015000FFFF016628000005480000FF014800007D
:1001600040014800001005480000400548000030EC
:10017000100001660A000014688CFFFF02480500A9
:10018000300248050010024805001007480500200D
:100190000A480500400A481500400A480500201496
:1001A00068A0FFFF016614000005480500400148F3
:1001B00005004001480500100548050020054805D8
:1001C0000030100001660A000014680AFFFF0248B0
:1001D00005002002480500100248050010074805E8
:1001E00000200A480500400A481500400A4805005A
:1001F0002014680EFFFF01661E000005480500FF81
:10020000014805004001480500100548050020058B
:100210004805003009000166040000646846FFFFDD
:1002200032480A0000646880FFFF32480A00006418
:100230006814FFFF32480A00006468C840FF324873
:100240000A00000A0001660100006468B4FF20147F
:10025000480010106468AFFF200166C80000026803
:10026000BC00FF0268B200000468BC00FF01661E0B
:1002700000002868ACFF1004000166640000646898
:1002800000FFFF64685AFFFF1E6830FFFF11000186
:10029000666400000563FFFFFF056300000005635F
:1002A000FFFFFF05630000000563FFFFFF0A630017
:1002B00000000A63FFFFFF0A630000000A63FFFFFC
:1002C000FF0A630000000563FFFFFF0563000000F5
:1002D0000563FFFFFF05630000000563FFFFFF14D8
:1002E0006300000086009700A300AF00BB00C700BA
:1002F000D300DF00EB00F20017011E017001C20104
:100300001402430277028D0211241FBECFE5D1E013
:10031000DEBFCDBF10E0A0E6B0E0E4E1FFE002C048
:1003200005900D92A836B107D9F710E0A8E6B0E025
:1003300001C01D92AB39B107E1F79BD2E9C560CE90
:10034000FF920F931F93262FE82F8C3F08F0EBEFBF
:10035000142F4C3F08F01BEF8E2F6AE293D4482FE6
:1003600090E06AE270E07CD4FE2EF81A622F2C3FF7
:1003700008F06BEF8BEF90E0861B9109612F70E026
:100380006FD46BEF70E09ED4FB01212F30E0C901E8
:10039000861B970B6F2D70E063D469E270E07ED40A
:1003A000062F8F2D90E0BF01621B730B899758D4E5
:1003B00069E270E073D44230D1F0433028F4442332
:1003C00051F0413069F50CC04430E9F04430B0F0F0
:1003D000453031F51FC01093840000938C0004C099
:1003E0006093840010938C00E093860019C0E09322
:1003F000840010938C000093860012C0E093840068
:1004000060938C0004C000938400E0938C001093F0
:10041000860006C010938400E0938C0060938600F1
:100420001F910F91FF9008951F920F920FB60F9298
:1004300011242F933F934F935F936F938F939F93C9
:10044000509191004091840060919700252F30E0F9
:10045000241B310937FF03C0309521953F4F862F6C
:1004600090E0821793074CF4541739F0541718F49E
:10047000462F450F02C0452F461B409391005091D7
:10048000920040918C0060919700252F30E0241B52
:10049000310937FF03C0309521953F4F862F90E0FB
:1004A000821793074CF4541739F0541718F4462F59
:1004B000450F02C0452F461B40939200509190007B
:1004C0004091860060919700252F30E0241B310970
:1004D00037FF03C0309521953F4F862F90E082175C
:1004E00093074CF4541739F0541718F4462F450F5E
:1004F00002C0452F461B4093900080919A008F5F69
:1005000080939A009F918F916F915F914F913F914E
:100510002F910F900FBE0F901F9018951F920F9262
:100520000FB60F9211248F939F938091630081FFE8
:1005300002C0C19A01C0C19883FF02C0C39A01C022
:10054000C39884FF02C0C49A01C0C498909162000D
:100550009F5F90936200992379F48091900080933B
:1005600094008091910080939500809192008093F7
:1005700096008AE18093630080919400891729F4A2
:10058000809163008D7F809363008091950089172F
:1005900029F480916300877F8093630080919600A7
:1005A000891729F4809163008F7E809363009F9167
:1005B0008F910F900FBE0F901F9018950F931F9360
:1005C000082F162F6623D9F06F3F11F4F4D316C00D
:1005D000F2D3612F57D3892F90E0002319F016959D
:1005E000811B9109800F911D97FF02C080E090E070
:1005F0008F3F910519F014F08FEF90E0082F802FB6
:100600001F910F91089580919900863609F47FC05B
:10061000873648F4883409F456C0833631F1833480
:1006200009F085C02DC08E3669F08F3620F48836EB
:1006300009F07DC03BC0803709F461C0843709F000
:1006400076C071C080917D0080938400809391007A
:1006500080917E0080938C008093920080917F0037
:100660008093860080939000089580917D00809310
:10067000840080917E0080938C0080917F0013C065
:100680008091840060917D0099DF80938400809147
:100690008C0060917E0092DF80938C0080918600B8
:1006A00060917F008BDF80938600089580917D00AC
:1006B00080938F0060917E006093600040917F0086
:1006C000409361001AC080918F0060917D0076DFB9
:1006D00080938F008091600060917E006FDF809337
:1006E00060008091610060917F0068DF482F8093F7
:1006F000610080918F006091600022DE08958091FA
:100700007D0060917E0040917F005DD008958091D2
:100710007D00882319F481E080937D0080917D0025
:1007200080939700089580917D0080938E000895B6
:100730008091930090918D00E0917B00F0917C007E
:10074000882371F4892F90E065E070E089D2E80F8A
:10075000F91F87E890E0BF0145E050E03BD31AC0A5
:10076000892F90E065E070E07BD2E80FF91F84915B
:10077000809387003196849180938800319684918C
:10078000809389003196849180938A003196E49118
:10079000E0938B0080918E0090918700890F809369
:1007A00087008091880080939900809189008093D0
:1007B0007D0080918A0080937E0080918B008093E1
:1007C0007F0021DF08951F93282F162F10929A0083
:1007D00040938D0080939300882389F487E090E014
:1007E00008D38093850088E090E003D3809398003D
:1007F00089E090E090937C0080937B001CC081E0B6
:1008000090E0821B91096EEF7FEF2AD28C519D4FB1
:10081000FC0125913491F9018491809385002F5F2B
:100820003F4FF9018491809398002F5F3F4F3093A1
:100830007C0020937B00112311F01093980078DF47
:100840001F9108950F931F93CF93DF930DE710E04F
:10085000C82FD0E0C00FD11F04C043D1F80181934D
:100860008F010C171D07C9F7DF91CF911F910F91D1
:100870000895A5E0B0E0EEE3F4E042C28AE187BB70
:1008800081E090E0B6D2D82E82E090E0B2D2E82E9D
:1008900083E090E0AED2F82E84E090E0AAD2082F58
:1008A00085E090E0A6D2182F80E090E0A2D2181642
:1008B0000CF089E0F0D081E083BF82E088BF89BF7F
:1008C0008BE080BF88B7846088BF89B7846089BFA8
:1008D00078940093970010938E0081E0D81621F44D
:1008E0008E2D6F2D40E06FDF7E010894E11CF11C1E
:1008F00080E3D82E00E117E207D1882309F4A3C0D2
:10090000F0D08093990090E0FC01E154F040E43392
:10091000F10508F098C0E15FFF4F0994109285003F
:1009200092C081E001C083E08DDF6DDE8CC08091DC
:100930009100C6D080919200C3D08091900064C095
:1009400080E090E056D260C01092800010927F004C
:1009500010927E0010927D0084E074DF60917D0033
:10096000662309F470C080918000681709F06BC09D
:1009700080917E00803D09F066C080917F008D30BF
:1009800009F061C080E090E044D280917D0083D086
:10099000C8010197F1F757C081E692D081E634C0D3
:1009A00083E050DF80917D00882309F04CC0809166
:1009B0007E00813310F0D0927E0087E090E060915D
:1009C0007E0027D288E090E060917F0022D23BC079
:1009D00082E038DF80917D008823A9F580917E0038
:1009E00090E065E070E03CD1BC01675F7F4FC701DC
:1009F00045E050E0EFD1898163D08A8161D08B815D
:100A00005FD08C815DD08D815BD01DC087E01ADF07
:100A100080917D008823B9F480917E00813398F421
:100A200090E065E070E01CD1BC01675F7F4F8FE70D
:100A300090E006C085E006DF8DE790E061E070E0C1
:100A400045E050E0DED120918500222309F454CF07
:100A500090919A0080918700891708F04DCF1092ED
:100A60009A0080918D008F5F80938D00821789F4AA
:100A700010928D00809198008150809398008F3F54
:100A800019F41092980005C0882319F4109285007B
:100A900033CF4EDE31CF109274001092730010925B
:100AA0007A00109279008093680087B3856087BBD5
:100AB000C29AC09AB89888EA8DB980EF8EB9089525
:100AC000282F909179009F5F937080917A009817FA
:100AD000E1F3E92FF0E0EB58FF4F2083909379008A
:100AE000089590917300809174009817D1F38091CC
:100AF00074008F5F877080937400E0917400F0E061
:100B0000E559FF4F808108959091730080917400A2
:100B100020E0981321E0822F08951F920F920FB6C4
:100B20000F9211248F9310926A0010926900B89866
:100B3000B29B02C0B09BFCCFB09902C088EF01C04D
:100B400088EA8DB980EF8EB98F910F900FBE0F900C
:100B50001F9018951F920F920FB60F9211248F932A
:100B60009F93EF93FF938091690090916A00823088
:100B7000910509F443C08330910530F4009779F072
:100B8000019709F064C01CC08430910509F43FC08E
:100B90008430910590F0059709F059C041C08FB19C
:100BA000882331F08FB1869590916800891719F5E7
:100BB000789B43C081E090E042C08FB18823D9F494
:100BC0009091790080917A009817A9F080917A002D
:100BD0008F5F837080937A00E0917A00F0E0EB58A9
:100BE000FF4F80818FB982E090E090936A008093FC
:100BF0006900B89A13C088EA8DB910C083E090E00C
:100C000090936A0080936900B8981FB81EC085E071
:100C100090E090936A0080936900B89880E716C0CE
:100C2000809173008F5F877080937300E0917300F1
:100C30008FB1F0E0E559FF4F808384E090E090931E
:100C40006A00809369001FB8B89A8EE78EB9FF9149
:100C5000EF919F918F910F900FBE0F901F9018955D
:100C60005527002480FF02C0060E571F660F771F0E
:100C70006115710521F096958795009799F7952F45
:100C8000802D0895991B79E004C0991F961708F0EC
:100C9000961B881F7A95C9F780950895AA1BBB1BE0
:100CA00051E107C0AA1FBB1FA617B70710F0A61B6C
:100CB000B70B881F991F5A95A9F780959095BC018D
:100CC000CD01089597FB092E07260AD077FD04D0A1
:100CD000E5DF06D000201AF4709561957F4F0895E6
:100CE000F6F7909581959F4F08952F923F924F92DE
:100CF0005F926F927F928F929F92AF92BF92CF92AC
:100D0000DF92EF92FF920F931F93CF93DF93CDB7B4
:100D1000DEB7CA1BDB0B0FB6F894DEBF0FBECDBF2C
:100D20000994A0E0B0E0E6E9F6E0E7CFEC01A880A6
:100D3000B980CA80DB80A114B104C104D10441F49C
:100D400084E2A82E89EDB82E8BE5C82E87E0D82E38
:100D5000C601B5012DE133EF41E050E081D027EA33
:100D600031E440E050E063D07B018C01C601B50165
:100D70002DE133EF41E050E073D0CA01B9012CEE10
:100D800034EF4FEF5FEF53D06E0D7F1D801F911F2B
:100D900097FF04C061507040804090486883798319
:100DA0008A839B839B013F77C901CDB7DEB7EAE019
:100DB0007AC0B7DF089584E690E0B3DF0895A0E03D
:100DC000B0E08093640090936500A0936600B093B8
:100DD00067000895DC01862FE82FE199FECF1FBA46
:100DE00005C0EEBBE09AE3950DB20D924150C8F7F5
:100DF0000895E199FECF1FBA8EBBE09A99278DB373
:100E00000895DC01862F02C02D9104D04150E0F7F7
:100E10000895262FE199FECF1CBA1FBA8EBB2DBBB9
:100E20000FB6F894E29AE19A0FBE01960895FF2753
:100E3000EE27BB27AA2760FF04C0A20FB31FE41F41
:100E4000F51F220F331F441F551F969587957795E1
:100E5000679589F70097760771F7CF01BD0108956F
:100E600097FB092E05260ED057FD04D02FD00AD0AF
:100E7000001C38F450954095309521953F4F4F4FC9
:100E80005F4F0895F6F790958095709561957F4F27
:100E90008F4F9F4F08952A88398848885F846E84D1
:100EA0007D848C849B84AA84B984C884DF80EE808E
:100EB000FD800C811B81AA81B981CE0FD11D0FB697
:100EC000F894DEBF0FBECDBFED010895A1E21A2E4A
:100ED000AA1BBB1BFD010DC0AA1FBB1FEE1FFF1FDE
:100EE000A217B307E407F50720F0A21BB30BE40B2E
:100EF000F50B661F771F881F991F1A9469F7609575
:100F00007095809590959B01AC01BD01CF0108952E
:040F1000F894FFCF83
:080F1400FFFFFF1A01000000BD
:00000001FF
